:020000040000FA
:1000000083168601831206143F2006103F20032822
:1000100000000000000000000000000008000000D8
:10002000A4301B28000040301B281F301B28000074
:100030000E301B2805308000800B1C280800C830BB
:100040002E2864302E2832302E2814302E280A30E4
:100050002E2805302E2802302E2801308100F9305C
:1000600080000000800B3128810B2F280800C83049
:1000700042286430422832304228143042280A3064
:1000800042280530820064308100F9308000000091
:0E009000800B4728810B4528820B432808006F
:02009E0000342C
:0200A00000342A
:02400E00F13F80
:00000001FF
